{
  "_format": "hh-sol-artifact-1",
  "contractName": "NFTMarketPlace",
  "sourceName": "contracts/NFTMarketplace.sol",
  "abi": [
    {
      "inputs": [],
      "stateMutability": "nonpayable",
      "type": "constructor"
    },
    {
      "anonymous": false,
      "inputs": [
        {
          "indexed": true,
          "internalType": "address",
          "name": "owner",
          "type": "address"
        },
        {
          "indexed": true,
          "internalType": "address",
          "name": "approved",
          "type": "address"
        },
        {
          "indexed": true,
          "internalType": "uint256",
          "name": "tokenId",
          "type": "uint256"
        }
      ],
      "name": "Approval",
      "type": "event"
    },
    {
      "anonymous": false,
      "inputs": [
        {
          "indexed": true,
          "internalType": "address",
          "name": "owner",
          "type": "address"
        },
        {
          "indexed": true,
          "internalType": "address",
          "name": "operator",
          "type": "address"
        },
        {
          "indexed": false,
          "internalType": "bool",
          "name": "approved",
          "type": "bool"
        }
      ],
      "name": "ApprovalForAll",
      "type": "event"
    },
    {
      "anonymous": false,
      "inputs": [
        {
          "indexed": false,
          "internalType": "uint256",
          "name": "_fromTokenId",
          "type": "uint256"
        },
        {
          "indexed": false,
          "internalType": "uint256",
          "name": "_toTokenId",
          "type": "uint256"
        }
      ],
      "name": "BatchMetadataUpdate",
      "type": "event"
    },
    {
      "anonymous": false,
      "inputs": [
        {
          "indexed": false,
          "internalType": "uint256",
          "name": "_tokenId",
          "type": "uint256"
        }
      ],
      "name": "MetadataUpdate",
      "type": "event"
    },
    {
      "anonymous": false,
      "inputs": [
        {
          "indexed": true,
          "internalType": "address",
          "name": "from",
          "type": "address"
        },
        {
          "indexed": true,
          "internalType": "address",
          "name": "to",
          "type": "address"
        },
        {
          "indexed": true,
          "internalType": "uint256",
          "name": "tokenId",
          "type": "uint256"
        }
      ],
      "name": "Transfer",
      "type": "event"
    },
    {
      "inputs": [
        {
          "internalType": "address",
          "name": "to",
          "type": "address"
        },
        {
          "internalType": "uint256",
          "name": "tokenId",
          "type": "uint256"
        }
      ],
      "name": "approve",
      "outputs": [],
      "stateMutability": "nonpayable",
      "type": "function"
    },
    {
      "inputs": [
        {
          "internalType": "address",
          "name": "owner",
          "type": "address"
        }
      ],
      "name": "balanceOf",
      "outputs": [
        {
          "internalType": "uint256",
          "name": "",
          "type": "uint256"
        }
      ],
      "stateMutability": "view",
      "type": "function"
    },
    {
      "inputs": [
        {
          "internalType": "string",
          "name": "tokenURI",
          "type": "string"
        },
        {
          "internalType": "uint256",
          "name": "price",
          "type": "uint256"
        }
      ],
      "name": "createToken",
      "outputs": [
        {
          "internalType": "uint256",
          "name": "",
          "type": "uint256"
        }
      ],
      "stateMutability": "payable",
      "type": "function"
    },
    {
      "inputs": [
        {
          "internalType": "uint256",
          "name": "tokenId",
          "type": "uint256"
        }
      ],
      "name": "executeSale",
      "outputs": [],
      "stateMutability": "payable",
      "type": "function"
    },
    {
      "inputs": [],
      "name": "getAllNFTs",
      "outputs": [
        {
          "components": [
            {
              "internalType": "uint256",
              "name": "tokenId",
              "type": "uint256"
            },
            {
              "internalType": "address payable",
              "name": "owner",
              "type": "address"
            },
            {
              "internalType": "address payable",
              "name": "seller",
              "type": "address"
            },
            {
              "internalType": "uint256",
              "name": "price",
              "type": "uint256"
            },
            {
              "internalType": "bool",
              "name": "currentlyListed",
              "type": "bool"
            }
          ],
          "internalType": "struct NFTMarketPlace.ListedToken[]",
          "name": "",
          "type": "tuple[]"
        }
      ],
      "stateMutability": "view",
      "type": "function"
    },
    {
      "inputs": [
        {
          "internalType": "uint256",
          "name": "tokenId",
          "type": "uint256"
        }
      ],
      "name": "getApproved",
      "outputs": [
        {
          "internalType": "address",
          "name": "",
          "type": "address"
        }
      ],
      "stateMutability": "view",
      "type": "function"
    },
    {
      "inputs": [],
      "name": "getCurrentToken",
      "outputs": [
        {
          "internalType": "uint256",
          "name": "",
          "type": "uint256"
        }
      ],
      "stateMutability": "view",
      "type": "function"
    },
    {
      "inputs": [],
      "name": "getLatesIdToListedToken",
      "outputs": [
        {
          "components": [
            {
              "internalType": "uint256",
              "name": "tokenId",
              "type": "uint256"
            },
            {
              "internalType": "address payable",
              "name": "owner",
              "type": "address"
            },
            {
              "internalType": "address payable",
              "name": "seller",
              "type": "address"
            },
            {
              "internalType": "uint256",
              "name": "price",
              "type": "uint256"
            },
            {
              "internalType": "bool",
              "name": "currentlyListed",
              "type": "bool"
            }
          ],
          "internalType": "struct NFTMarketPlace.ListedToken",
          "name": "",
          "type": "tuple"
        }
      ],
      "stateMutability": "view",
      "type": "function"
    },
    {
      "inputs": [],
      "name": "getListPrice",
      "outputs": [
        {
          "internalType": "uint256",
          "name": "",
          "type": "uint256"
        }
      ],
      "stateMutability": "view",
      "type": "function"
    },
    {
      "inputs": [
        {
          "internalType": "uint256",
          "name": "tokenId",
          "type": "uint256"
        }
      ],
      "name": "getListedForTokenId",
      "outputs": [
        {
          "components": [
            {
              "internalType": "uint256",
              "name": "tokenId",
              "type": "uint256"
            },
            {
              "internalType": "address payable",
              "name": "owner",
              "type": "address"
            },
            {
              "internalType": "address payable",
              "name": "seller",
              "type": "address"
            },
            {
              "internalType": "uint256",
              "name": "price",
              "type": "uint256"
            },
            {
              "internalType": "bool",
              "name": "currentlyListed",
              "type": "bool"
            }
          ],
          "internalType": "struct NFTMarketPlace.ListedToken",
          "name": "",
          "type": "tuple"
        }
      ],
      "stateMutability": "view",
      "type": "function"
    },
    {
      "inputs": [],
      "name": "getMyNFT",
      "outputs": [
        {
          "components": [
            {
              "internalType": "uint256",
              "name": "tokenId",
              "type": "uint256"
            },
            {
              "internalType": "address payable",
              "name": "owner",
              "type": "address"
            },
            {
              "internalType": "address payable",
              "name": "seller",
              "type": "address"
            },
            {
              "internalType": "uint256",
              "name": "price",
              "type": "uint256"
            },
            {
              "internalType": "bool",
              "name": "currentlyListed",
              "type": "bool"
            }
          ],
          "internalType": "struct NFTMarketPlace.ListedToken[]",
          "name": "",
          "type": "tuple[]"
        }
      ],
      "stateMutability": "view",
      "type": "function"
    },
    {
      "inputs": [
        {
          "internalType": "address",
          "name": "owner",
          "type": "address"
        },
        {
          "internalType": "address",
          "name": "operator",
          "type": "address"
        }
      ],
      "name": "isApprovedForAll",
      "outputs": [
        {
          "internalType": "bool",
          "name": "",
          "type": "bool"
        }
      ],
      "stateMutability": "view",
      "type": "function"
    },
    {
      "inputs": [],
      "name": "name",
      "outputs": [
        {
          "internalType": "string",
          "name": "",
          "type": "string"
        }
      ],
      "stateMutability": "view",
      "type": "function"
    },
    {
      "inputs": [
        {
          "internalType": "uint256",
          "name": "tokenId",
          "type": "uint256"
        }
      ],
      "name": "ownerOf",
      "outputs": [
        {
          "internalType": "address",
          "name": "",
          "type": "address"
        }
      ],
      "stateMutability": "view",
      "type": "function"
    },
    {
      "inputs": [
        {
          "internalType": "address",
          "name": "from",
          "type": "address"
        },
        {
          "internalType": "address",
          "name": "to",
          "type": "address"
        },
        {
          "internalType": "uint256",
          "name": "tokenId",
          "type": "uint256"
        }
      ],
      "name": "safeTransferFrom",
      "outputs": [],
      "stateMutability": "nonpayable",
      "type": "function"
    },
    {
      "inputs": [
        {
          "internalType": "address",
          "name": "from",
          "type": "address"
        },
        {
          "internalType": "address",
          "name": "to",
          "type": "address"
        },
        {
          "internalType": "uint256",
          "name": "tokenId",
          "type": "uint256"
        },
        {
          "internalType": "bytes",
          "name": "data",
          "type": "bytes"
        }
      ],
      "name": "safeTransferFrom",
      "outputs": [],
      "stateMutability": "nonpayable",
      "type": "function"
    },
    {
      "inputs": [
        {
          "internalType": "address",
          "name": "operator",
          "type": "address"
        },
        {
          "internalType": "bool",
          "name": "approved",
          "type": "bool"
        }
      ],
      "name": "setApprovalForAll",
      "outputs": [],
      "stateMutability": "nonpayable",
      "type": "function"
    },
    {
      "inputs": [
        {
          "internalType": "bytes4",
          "name": "interfaceId",
          "type": "bytes4"
        }
      ],
      "name": "supportsInterface",
      "outputs": [
        {
          "internalType": "bool",
          "name": "",
          "type": "bool"
        }
      ],
      "stateMutability": "view",
      "type": "function"
    },
    {
      "inputs": [],
      "name": "symbol",
      "outputs": [
        {
          "internalType": "string",
          "name": "",
          "type": "string"
        }
      ],
      "stateMutability": "view",
      "type": "function"
    },
    {
      "inputs": [
        {
          "internalType": "uint256",
          "name": "tokenId",
          "type": "uint256"
        }
      ],
      "name": "tokenURI",
      "outputs": [
        {
          "internalType": "string",
          "name": "",
          "type": "string"
        }
      ],
      "stateMutability": "view",
      "type": "function"
    },
    {
      "inputs": [
        {
          "internalType": "address",
          "name": "from",
          "type": "address"
        },
        {
          "internalType": "address",
          "name": "to",
          "type": "address"
        },
        {
          "internalType": "uint256",
          "name": "tokenId",
          "type": "uint256"
        }
      ],
      "name": "transferFrom",
      "outputs": [],
      "stateMutability": "nonpayable",
      "type": "function"
    },
    {
      "inputs": [
        {
          "internalType": "uint256",
          "name": "_listPrice",
          "type": "uint256"
        }
      ],
      "name": "updateListPrice",
      "outputs": [],
      "stateMutability": "payable",
      "type": "function"
    }
  ],
  "bytecode": "0x6080604052662386f26fc10000600a553480156200001c57600080fd5b50604080518082018252600e81526d4e46544d61726b6574506c61636560901b6020808301918252835180850190945260048452634e46544d60e01b9084015281519192916200006f91600091620000a0565b50805162000085906001906020840190620000a0565b5050600780546001600160a01b031916331790555062000183565b828054620000ae9062000146565b90600052602060002090601f016020900481019282620000d257600085556200011d565b82601f10620000ed57805160ff19168380011785556200011d565b828001600101855582156200011d579182015b828111156200011d57825182559160200191906001019062000100565b506200012b9291506200012f565b5090565b5b808211156200012b576000815560010162000130565b600181811c908216806200015b57607f821691505b602082108114156200017d57634e487b7160e01b600052602260045260246000fd5b50919050565b61209180620001936000396000f3fe6080604052600436106101355760003560e01c806398c3df16116100ab578063c87b56dd1161006f578063c87b56dd14610345578063cad7d03314610365578063ce6b4b1514610387578063e0391b091461039c578063e985e9c5146103b1578063ef2d1746146103fa57600080fd5b806398c3df16146102b25780639b1225c4146102df578063a22cb465146102f2578063b88d4fde14610312578063c322579c1461033257600080fd5b806342842e0e116100fd57806342842e0e1461020b5780636352211e1461022b57806368f1945f1461024b57806370a082311461026a57806372b3b6201461028a57806395d89b411461029d57600080fd5b806301ffc9a71461013a57806306fdde031461016f578063081812fc14610191578063095ea7b3146101c957806323b872dd146101eb575b600080fd5b34801561014657600080fd5b5061015a610155366004611cae565b61040f565b60405190151581526020015b60405180910390f35b34801561017b57600080fd5b5061018461043a565b6040516101669190611e7a565b34801561019d57600080fd5b506101b16101ac366004611d3c565b6104cc565b6040516001600160a01b039091168152602001610166565b3480156101d557600080fd5b506101e96101e4366004611c85565b6104f3565b005b3480156101f757600080fd5b506101e9610206366004611b97565b61060e565b34801561021757600080fd5b506101e9610226366004611b97565b61063f565b34801561023757600080fd5b506101b1610246366004611d3c565b61065a565b34801561025757600080fd5b50600a545b604051908152602001610166565b34801561027657600080fd5b5061025c610285366004611b4b565b6106ba565b61025c610298366004611ce6565b610740565b3480156102a957600080fd5b50610184610823565b3480156102be57600080fd5b506102d26102cd366004611d3c565b610832565b6040516101669190611f71565b6101e96102ed366004611d3c565b61089c565b3480156102fe57600080fd5b506101e961030d366004611c4b565b6109e0565b34801561031e57600080fd5b506101e961032d366004611bd2565b6109ef565b6101e9610340366004611d3c565b610a21565b34801561035157600080fd5b50610184610360366004611d3c565b610a80565b34801561037157600080fd5b5061037a610b91565b6040516101669190611e2c565b34801561039357600080fd5b506102d2610dd6565b3480156103a857600080fd5b5061037a610e4d565b3480156103bd57600080fd5b5061015a6103cc366004611b65565b6001600160a01b03918216600090815260056020908152604080832093909416825291909152205460ff1690565b34801561040657600080fd5b5061025c610f94565b60006001600160e01b03198216632483248360e11b1480610434575061043482610fa4565b92915050565b60606000805461044990611fc3565b80601f016020809104026020016040519081016040528092919081815260200182805461047590611fc3565b80156104c25780601f10610497576101008083540402835291602001916104c2565b820191906000526020600020905b8154815290600101906020018083116104a557829003601f168201915b5050505050905090565b60006104d782610ff4565b506000908152600460205260409020546001600160a01b031690565b60006104fe8261065a565b9050806001600160a01b0316836001600160a01b031614156105715760405162461bcd60e51b815260206004820152602160248201527f4552433732313a20617070726f76616c20746f2063757272656e74206f776e656044820152603960f91b60648201526084015b60405180910390fd5b336001600160a01b038216148061058d575061058d81336103cc565b6105ff5760405162461bcd60e51b815260206004820152603d60248201527f4552433732313a20617070726f76652063616c6c6572206973206e6f7420746f60448201527f6b656e206f776e6572206f7220617070726f76656420666f7220616c6c0000006064820152608401610568565b6106098383611056565b505050565b61061833826110c4565b6106345760405162461bcd60e51b815260040161056890611e8d565b610609838383611142565b610609838383604051806020016040528060008152506109ef565b6000818152600260205260408120546001600160a01b0316806104345760405162461bcd60e51b8152602060048201526018602482015277115490cdcc8c4e881a5b9d985b1a59081d1bdad95b88125160421b6044820152606401610568565b60006001600160a01b0382166107245760405162461bcd60e51b815260206004820152602960248201527f4552433732313a2061646472657373207a65726f206973206e6f7420612076616044820152683634b21037bbb732b960b91b6064820152608401610568565b506001600160a01b031660009081526003602052604090205490565b6000600a5434146107935760405162461bcd60e51b815260206004820152601960248201527f73656e6420656e6f75676820657468657220746f206c697374000000000000006044820152606401610568565b600082116107e35760405162461bcd60e51b815260206004820152601860248201527f50726963652063616e2774206265206e656761746976652000000000000000006044820152606401610568565b6107f1600880546001019055565b60006107fc60085490565b905061080833826112a6565b61081281856112c0565b61081c8184611392565b9392505050565b60606001805461044990611fc3565b61083a6119f2565b506000908152600b6020908152604091829020825160a0810184528154815260018201546001600160a01b03908116938201939093526002820154909216928201929092526003820154606082015260049091015460ff161515608082015290565b6000818152600b60205260409020600301543481146109095760405162461bcd60e51b815260206004820152602360248201527f756e73756666696369656e7420616d6f756e7420746f206275792074686973206044820152621b999d60ea1b6064820152608401610568565b6000828152600b602052604090206002810180546004909201805460ff191660011790556001600160a01b03198216331790556001600160a01b0316610953600980546001019055565b61095e303385611142565b61096830846104f3565b600754600a546040516001600160a01b039092169181156108fc0291906000818181858888f193505050501580156109a4573d6000803e3d6000fd5b506040516001600160a01b038216903480156108fc02916000818181858888f193505050501580156109da573d6000803e3d6000fd5b50505050565b6109eb33838361142f565b5050565b6109f933836110c4565b610a155760405162461bcd60e51b815260040161056890611e8d565b6109da848484846114fe565b6007546001600160a01b03163314610a7b5760405162461bcd60e51b815260206004820152601f60248201527f4f6e6c79206f776e65722063616e2075706461746520746865207072696365006044820152606401610568565b600a55565b6060610a8b82610ff4565b60008281526006602052604081208054610aa490611fc3565b80601f0160208091040260200160405190810160405280929190818152602001828054610ad090611fc3565b8015610b1d5780601f10610af257610100808354040283529160200191610b1d565b820191906000526020600020905b815481529060010190602001808311610b0057829003601f168201915b505050505090506000610b3b60408051602081019091526000815290565b9050805160001415610b4e575092915050565b815115610b80578082604051602001610b68929190611dc0565b60405160208183030381529060405292505050919050565b610b8984611531565b949350505050565b60606000610b9e60085490565b905060008060005b83811015610c365733600b6000610bbe846001611f7f565b81526020810191909152604001600020600101546001600160a01b03161480610c11575033600b6000610bf2846001611f7f565b81526020810191909152604001600020600201546001600160a01b0316145b15610c2457610c21600184611f7f565b92505b80610c2e81611ffe565b915050610ba6565b5060008267ffffffffffffffff811115610c6057634e487b7160e01b600052604160045260246000fd5b604051908082528060200260200182016040528015610c9957816020015b610c866119f2565b815260200190600190039081610c7e5790505b50905060005b84811015610dcd5733600b6000610cb7846001611f7f565b81526020810191909152604001600020600101546001600160a01b03161480610d0a575033600b6000610ceb846001611f7f565b81526020810191909152604001600020600201546001600160a01b0316145b15610dbb576000610d1c826001611f7f565b6000818152600b6020908152604091829020825160a0810184528154815260018201546001600160a01b039081169382019390935260028201549092169282019290925260038201546060820152600482015460ff161515608082015285519293509091859087908110610da057634e487b7160e01b600052603260045260246000fd5b6020908102919091010152610db6600186611f7f565b945050505b80610dc581611ffe565b915050610c9f565b50949350505050565b610dde6119f2565b6000610de960085490565b6000908152600b6020908152604091829020825160a0810184528154815260018201546001600160a01b03908116938201939093526002820154909216928201929092526003820154606082015260049091015460ff161515608082015292915050565b60606000610e5a60085490565b905060008167ffffffffffffffff811115610e8557634e487b7160e01b600052604160045260246000fd5b604051908082528060200260200182016040528015610ebe57816020015b610eab6119f2565b815260200190600190039081610ea35790505b5090506000805b83811015610f8b576000610eda826001611f7f565b6000818152600b6020908152604091829020825160a0810184528154815260018201546001600160a01b039081169382019390935260028201549092169282019290925260038201546060820152600482015460ff161515608082015286519293509091869086908110610f5e57634e487b7160e01b600052603260045260246000fd5b6020908102919091010152610f74600185611f7f565b935050508080610f8390611ffe565b915050610ec5565b50909392505050565b6000610f9f60085490565b905090565b60006001600160e01b031982166380ac58cd60e01b1480610fd557506001600160e01b03198216635b5e139f60e01b145b8061043457506301ffc9a760e01b6001600160e01b0319831614610434565b6000818152600260205260409020546001600160a01b03166110535760405162461bcd60e51b8152602060048201526018602482015277115490cdcc8c4e881a5b9d985b1a59081d1bdad95b88125160421b6044820152606401610568565b50565b600081815260046020526040902080546001600160a01b0319166001600160a01b038416908117909155819061108b8261065a565b6001600160a01b03167f8c5be1e5ebec7d5bd14f71427d1e84f3dd0314c0f7b2291e5b200ac8c7c3b92560405160405180910390a45050565b6000806110d08361065a565b9050806001600160a01b0316846001600160a01b0316148061111757506001600160a01b0380821660009081526005602090815260408083209388168352929052205460ff165b80610b895750836001600160a01b0316611130846104cc565b6001600160a01b031614949350505050565b826001600160a01b03166111558261065a565b6001600160a01b03161461117b5760405162461bcd60e51b815260040161056890611f2c565b6001600160a01b0382166111dd5760405162461bcd60e51b8152602060048201526024808201527f4552433732313a207472616e7366657220746f20746865207a65726f206164646044820152637265737360e01b6064820152608401610568565b826001600160a01b03166111f08261065a565b6001600160a01b0316146112165760405162461bcd60e51b815260040161056890611f2c565b600081815260046020908152604080832080546001600160a01b03199081169091556001600160a01b0387811680865260038552838620805460001901905590871680865283862080546001019055868652600290945282852080549092168417909155905184937fddf252ad1be2c89b69c2b068fc378daa952ba7f163c4a11628f55a4df523b3ef91a4505050565b6109eb8282604051806020016040528060008152506115a4565b6000828152600260205260409020546001600160a01b031661133b5760405162461bcd60e51b815260206004820152602e60248201527f45524337323155524953746f726167653a2055524920736574206f66206e6f6e60448201526d32bc34b9ba32b73a103a37b5b2b760911b6064820152608401610568565b6000828152600660209081526040909120825161135a92840190611a20565b506040518281527ff8e1a15aba9398e019f0b49df1a4fde98ee17ae345cb5f6b5e2c27f5033e8ce79060200160405180910390a15050565b6040805160a081018252838152306020808301828152338486018181526060860188815260016080880181815260008c8152600b9097529890952096518755925193860180546001600160a01b039586166001600160a01b03199182161790915590516002870180549190951691161790925551600384015592516004909201805492151560ff19909316929092179091556109eb919084611142565b816001600160a01b0316836001600160a01b031614156114915760405162461bcd60e51b815260206004820152601960248201527f4552433732313a20617070726f766520746f2063616c6c6572000000000000006044820152606401610568565b6001600160a01b03838116600081815260056020908152604080832094871680845294825291829020805460ff191686151590811790915591519182527f17307eab39ab6107e8899845ad3d59bd9653f200f220920489ca2b5937696c31910160405180910390a3505050565b611509848484611142565b611515848484846115d7565b6109da5760405162461bcd60e51b815260040161056890611eda565b606061153c82610ff4565b600061155360408051602081019091526000815290565b90506000815111611573576040518060200160405280600081525061081c565b8061157d846116e4565b60405160200161158e929190611dc0565b6040516020818303038152906040529392505050565b6115ae838361178f565b6115bb60008484846115d7565b6106095760405162461bcd60e51b815260040161056890611eda565b60006001600160a01b0384163b156116d957604051630a85bd0160e11b81526001600160a01b0385169063150b7a029061161b903390899088908890600401611def565b602060405180830381600087803b15801561163557600080fd5b505af1925050508015611665575060408051601f3d908101601f1916820190925261166291810190611cca565b60015b6116bf573d808015611693576040519150601f19603f3d011682016040523d82523d6000602084013e611698565b606091505b5080516116b75760405162461bcd60e51b815260040161056890611eda565b805181602001fd5b6001600160e01b031916630a85bd0160e11b149050610b89565b506001949350505050565b606060006116f18361191a565b600101905060008167ffffffffffffffff81111561171f57634e487b7160e01b600052604160045260246000fd5b6040519080825280601f01601f191660200182016040528015611749576020820181803683370190505b5090508181016020015b600019016f181899199a1a9b1b9c1cb0b131b232b360811b600a86061a8153600a850494508461178257611787565b611753565b509392505050565b6001600160a01b0382166117e55760405162461bcd60e51b815260206004820181905260248201527f4552433732313a206d696e7420746f20746865207a65726f20616464726573736044820152606401610568565b6000818152600260205260409020546001600160a01b03161561184a5760405162461bcd60e51b815260206004820152601c60248201527f4552433732313a20746f6b656e20616c7265616479206d696e746564000000006044820152606401610568565b6000818152600260205260409020546001600160a01b0316156118af5760405162461bcd60e51b815260206004820152601c60248201527f4552433732313a20746f6b656e20616c7265616479206d696e746564000000006044820152606401610568565b6001600160a01b038216600081815260036020908152604080832080546001019055848352600290915280822080546001600160a01b0319168417905551839291907fddf252ad1be2c89b69c2b068fc378daa952ba7f163c4a11628f55a4df523b3ef908290a45050565b60008072184f03e93ff9f4daa797ed6e38ed64bf6a1f0160401b83106119595772184f03e93ff9f4daa797ed6e38ed64bf6a1f0160401b830492506040015b6d04ee2d6d415b85acef81000000008310611985576d04ee2d6d415b85acef8100000000830492506020015b662386f26fc1000083106119a357662386f26fc10000830492506010015b6305f5e10083106119bb576305f5e100830492506008015b61271083106119cf57612710830492506004015b606483106119e1576064830492506002015b600a83106104345760010192915050565b6040805160a08101825260008082526020820181905291810182905260608101829052608081019190915290565b828054611a2c90611fc3565b90600052602060002090601f016020900481019282611a4e5760008555611a94565b82601f10611a6757805160ff1916838001178555611a94565b82800160010185558215611a94579182015b82811115611a94578251825591602001919060010190611a79565b50611aa0929150611aa4565b5090565b5b80821115611aa05760008155600101611aa5565b600067ffffffffffffffff80841115611ad457611ad461202f565b604051601f8501601f19908116603f01168101908282118183101715611afc57611afc61202f565b81604052809350858152868686011115611b1557600080fd5b858560208301376000602087830101525050509392505050565b80356001600160a01b0381168114611b4657600080fd5b919050565b600060208284031215611b5c578081fd5b61081c82611b2f565b60008060408385031215611b77578081fd5b611b8083611b2f565b9150611b8e60208401611b2f565b90509250929050565b600080600060608486031215611bab578081fd5b611bb484611b2f565b9250611bc260208501611b2f565b9150604084013590509250925092565b60008060008060808587031215611be7578081fd5b611bf085611b2f565b9350611bfe60208601611b2f565b925060408501359150606085013567ffffffffffffffff811115611c20578182fd5b8501601f81018713611c30578182fd5b611c3f87823560208401611ab9565b91505092959194509250565b60008060408385031215611c5d578182fd5b611c6683611b2f565b915060208301358015158114611c7a578182fd5b809150509250929050565b60008060408385031215611c97578182fd5b611ca083611b2f565b946020939093013593505050565b600060208284031215611cbf578081fd5b813561081c81612045565b600060208284031215611cdb578081fd5b815161081c81612045565b60008060408385031215611cf8578182fd5b823567ffffffffffffffff811115611d0e578283fd5b8301601f81018513611d1e578283fd5b611d2d85823560208401611ab9565b95602094909401359450505050565b600060208284031215611d4d578081fd5b5035919050565b60008151808452611d6c816020860160208601611f97565b601f01601f19169290920160200192915050565b805182526020808201516001600160a01b039081169184019190915260408083015190911690830152606080820151908301526080908101511515910152565b60008351611dd2818460208801611f97565b835190830190611de6818360208801611f97565b01949350505050565b6001600160a01b0385811682528416602082015260408101839052608060608201819052600090611e2290830184611d54565b9695505050505050565b6020808252825182820181905260009190848201906040850190845b81811015611e6e57611e5b838551611d80565b9284019260a09290920191600101611e48565b50909695505050505050565b60208152600061081c6020830184611d54565b6020808252602d908201527f4552433732313a2063616c6c6572206973206e6f7420746f6b656e206f776e6560408201526c1c881bdc88185c1c1c9bdd9959609a1b606082015260800190565b60208082526032908201527f4552433732313a207472616e7366657220746f206e6f6e20455243373231526560408201527131b2b4bb32b91034b6b83632b6b2b73a32b960711b606082015260800190565b60208082526025908201527f4552433732313a207472616e736665722066726f6d20696e636f72726563742060408201526437bbb732b960d91b606082015260800190565b60a081016104348284611d80565b60008219821115611f9257611f92612019565b500190565b60005b83811015611fb2578181015183820152602001611f9a565b838111156109da5750506000910152565b600181811c90821680611fd757607f821691505b60208210811415611ff857634e487b7160e01b600052602260045260246000fd5b50919050565b600060001982141561201257612012612019565b5060010190565b634e487b7160e01b600052601160045260246000fd5b634e487b7160e01b600052604160045260246000fd5b6001600160e01b03198116811461105357600080fdfea26469706673582212206d55bb6005ca483ec592a2063431bb5297d37f0507414784dd8a0b8051eaabb764736f6c63430008040033",
  "linkReferences": {},
  "deployedLinkReferences": {}
}